{
    "ChainAtoChainB_Constantinople" : {
        "_info" : {
            "comment" : "",
            "filledwith" : "testeth 1.6.0-alpha.0-12+commit.05b55e64",
            "lllcversion" : "Version: 0.5.0-develop.2018.11.9+commit.9709dfe0.Linux.g++",
            "source" : "src/BlockchainTestsFiller/bcMultiChainTest/ChainAtoChainBFiller.json",
            "sourceHash" : "785e1a3f61e56ebc8754d720c746c26efc50d66cffeb552ac09ae6f5b5e2e272"
        },
        "blocks" : [
            {
                "blockHeader" : {
                    "bloom" : "0x00000000000000000000000000000000000000000000000000000000000000000000000000000000000000000000000000000000000000000000000000000000000000000000000000000000000000000000000000000000000000000000000000000000000000000000000000000000000000000000000000000000000000000000000000000000000000000000000000000000000000000000000000000000000000000000000000000000000000000000000000000000000000000000000000000000000000000000000000000000000000000000000000000000000000000000000000000000000000000000000000000000000000000000000000000000",
                    "extraData" : "",
                    "gasLimit" : "0x2fefba",
                    "gasUsed" : "0x5208",
                    "hash" : "0x5b84900e060d6b82d04716db276ea173ecb2f6e350ae350eb196c57101f1ebc5",
                    "mixHash" : "0x7a6c1c63b8a08d6e30711fe01336d0cc33fceafc3f961349c894c7ddeaa7d3ef",
                    "number" : "0x01",
                    "parentHash" : "0x5a39ed1020c04d4d84539975b893a4e7c53eab6c2965db8bc3468093a31bc5ae",
                    "receiptTrie" : "0x056b23fbba480696b65fe5a59b8f2148a1299103c4f57df839233af2cf4ca2d2",
                    "stateRoot" : "0x9f975da0cdc4d5f074009af73873d83f3e29d9e7f33fee3f11a38133166034e5",
                    "timestamp" : "0x5c477ac0",
                    "transactionsTrie" : "0x5c9151c2413d1cd25c51ffb4ac38948acc1359bf08c6b49f283660e9bcf0f516"
                },
                "blocknumber" : "1",
                "chainname" : "A",
                "rlp" : "0xf90261f901f9a05a39ed1020c04d4d84539975b893a4e7c53eab6c2965db8bc3468093a31bc5aea01dcc4de8dec75d7aab85b567b6ccd41ad312451b948a7413f0a142fd40d49347948888f1f195afa192cfee860698584c030f4c9db1a09f975da0cdc4d5f074009af73873d83f3e29d9e7f33fee3f11a38133166034e5a05c9151c2413d1cd25c51ffb4ac38948acc1359bf08c6b49f283660e9bcf0f516a0056b23fbba480696b65fe5a59b8f2148a1299103c4f57df839233af2cf4ca2d2b90100000000000000000000000000000000000000000000000000000000000000000000000000000000000000000000000000000000000000000000000000000000000000000000000000000000000000000000000000000000000000000000000000000000000000000000000000000000000000000000000000000000000000000000000000000000000000000000000000000000000000000000000000000000000000000000000000000000000000000000000000000000000000000000000000000000000000000000000000000000000000000000000000000000000000000000000000000000000000000000000000000000000000000000000000000000008302000001832fefba825208845c477ac080a07a6c1c63b8a08d6e30711fe01336d0cc33fceafc3f961349c894c7ddeaa7d3ef886318aec965e6633ef862f86080018304cb2f94095e7baea6a6c7c4c2dfeb977efac326af552d870a801ba077c7cd36820c71821c1aed59de46e70e701c4a8dd89c9ba508ab722210f60da8a03f29825d40c7c3f7bff3ca69267e0f3fb74b2d18b8c2c4e3c135b5d3b06e288dc0",
                "transactions" : [
                    {
                        "data" : "0x",
                        "gasLimit" : "0x04cb2f",
                        "gasPrice" : "0x01",
                        "nonce" : "0x00",
                        "r" : "0x77c7cd36820c71821c1aed59de46e70e701c4a8dd89c9ba508ab722210f60da8",
                        "s" : "0x3f29825d40c7c3f7bff3ca69267e0f3fb74b2d18b8c2c4e3c135b5d3b06e288d",
                        "to" : "0x095e7baea6a6c7c4c2dfeb977efac326af552d87",
                        "v" : "0x1b",
                        "value" : "0x0a"
                    }
                ]
            },
            {
                "blockHeader" : {
                    "bloom" : "0x00000000000000000000000000000000000000000000000000000000000000000000000000000000000000000000000000000000000000000000000000000000000000000000000000000000000000000000000000000000000000000000000000000000000000000000000000000000000000000000000000000000000000000000000000000000000000000000000000000000000000000000000000000000000000000000000000000000000000000000000000000000000000000000000000000000000000000000000000000000000000000000000000000000000000000000000000000000000000000000000000000000000000000000000000000000",
                    "extraData" : "",
                    "gasLimit" : "0x2fefba",
                    "gasUsed" : "0x5208",
                    "hash" : "0x0dd243e6c090c2cf38cad493ee7599c9ddd64b7b5ba1165a4112ca7d85682a3c",
                    "mixHash" : "0xb7d794927c147c63082c8918f816eb2ef378fc1a9453d3d8c822b6d7f7a3b56f",
                    "nonce" : "0xa54e4cc5e0e53787",
                    "number" : "0x02",
                    "parentHash" : "0x5b84900e060d6b82d04716db276ea173ecb2f6e350ae350eb196c57101f1ebc5",
                    "receiptTrie" : "0x056b23fbba480696b65fe5a59b8f2148a1299103c4f57df839233af2cf4ca2d2",
                    "stateRoot" : "0xdf68925b0ee17b44c826ce4537dc0924700f7b7aa1c7c1b1d489a779b1be2525",
                    "timestamp" : "0x5c477ac1",
                    "transactionsTrie" : "0xc673e076264c4669a5c2e479f1757b78e42511efe33b5fd2c0a23b929c7f87f5"
                },
                "blocknumber" : "2",
                "chainname" : "A",
                "rlp" : "0xf90260f901f9a05b84900e060d6b82d04716db276ea173ecb2f6e350ae350eb196c57101f1ebc5a01dcc4de8dec75d7aab85b567b6ccd41ad312451b948a7413f0a142fd40d49347948888f1f195afa192cfee860698584c030f4c9db1a0df68925b0ee17b44c826ce4537dc0924700f7b7aa1c7c1b1d489a779b1be2525a0c673e076264c4669a5c2e479f1757b78e42511efe33b5fd2c0a23b929c7f87f5a0056b23fbba480696b65fe5a59b8f2148a1299103c4f57df839233af2cf4ca2d2b90100000000000000000000000000000000000000000000000000000000000000000000000000000000000000000000000000000000000000000000000000000000000000000000000000000000000000000000000000000000000000000000000000000000000000000000000000000000000000000000000000000000000000000000000000000000000000000000000000000000000000000000000000000000000000000000000000000000000000000000000000000000000000000000000000000000000000000000000000000000000000000000000000000000000000000000000000000000000000000000000000000000000000000000000000000000008302004002832fefba825208845c477ac180a0b7d794927c147c63082c8918f816eb2ef378fc1a9453d3d8c822b6d7f7a3b56f88a54e4cc5e0e53787f861f85f01018304cb2f94095e7baea6a6c7c4c2dfeb977efac326af552d870a801ba033c86e64d708c97c6b135cadff79dbf45985aa0b53694789e90d15f756765f239f1d0f8caa2a16405148c9d85581be5814960010f3cba938b5501590cea1f7cfc0",
                "transactions" : [
                    {
                        "data" : "0x",
                        "gasLimit" : "0x04cb2f",
                        "gasPrice" : "0x01",
                        "nonce" : "0x01",
                        "r" : "0x33c86e64d708c97c6b135cadff79dbf45985aa0b53694789e90d15f756765f23",
                        "s" : "0x1d0f8caa2a16405148c9d85581be5814960010f3cba938b5501590cea1f7cf",
                        "to" : "0x095e7baea6a6c7c4c2dfeb977efac326af552d87",
                        "v" : "0x1b",
                        "value" : "0x0a"
                    }
                ]
            },
            {
                "blockHeader" : {
                    "bloom" : "0x00000000000000000000000000000000000000000000000000000000000000000000000000000000000000000000000000000000000000000000000000000000000000000000000000000000000000000000000000000000000000000000000000000000000000000000000000000000000000000000000000000000000000000000000000000000000000000000000000000000000000000000000000000000000000000000000000000000000000000000000000000000000000000000000000000000000000000000000000000000000000000000000000000000000000000000000000000000000000000000000000000000000000000000000000000000",
                    "extraData" : "",
                    "gasLimit" : "0x2fefba",
                    "gasUsed" : "0x5208",
                    "hash" : "0xf55b2ec4d62e67b269613652087306f389032a79c62a46cc62e74282fb85f92f",
                    "mixHash" : "0xbb504a5f301192aac7a877ccc568a94b7588cd38ea6d0c12ca17b736eb5454d0",
                    "nonce" : "0x28ed8784a4c178b3",
                    "number" : "0x03",
                    "parentHash" : "0x0dd243e6c090c2cf38cad493ee7599c9ddd64b7b5ba1165a4112ca7d85682a3c",
                    "receiptTrie" : "0x056b23fbba480696b65fe5a59b8f2148a1299103c4f57df839233af2cf4ca2d2",
                    "stateRoot" : "0xa886e704f7f73b0aa9dbfe288bcd7b6ab47c82b37cd29fabb7b5d21bbae3e72b",
                    "timestamp" : "0x5c477ac2",
                    "transactionsTrie" : "0x1722b8a91bfc4f5614ce36ee77c7cce6620ab4af36d3c54baa66d7dbeb7bce1a"
                },
                "blocknumber" : "3",
                "chainname" : "A",
                "rlp" : "0xf90261f901f9a00dd243e6c090c2cf38cad493ee7599c9ddd64b7b5ba1165a4112ca7d85682a3ca01dcc4de8dec75d7aab85b567b6ccd41ad312451b948a7413f0a142fd40d49347948888f1f195afa192cfee860698584c030f4c9db1a0a886e704f7f73b0aa9dbfe288bcd7b6ab47c82b37cd29fabb7b5d21bbae3e72ba01722b8a91bfc4f5614ce36ee77c7cce6620ab4af36d3c54baa66d7dbeb7bce1aa0056b23fbba480696b65fe5a59b8f2148a1299103c4f57df839233af2cf4ca2d2b90100000000000000000000000000000000000000000000000000000000000000000000000000000000000000000000000000000000000000000000000000000000000000000000000000000000000000000000000000000000000000000000000000000000000000000000000000000000000000000000000000000000000000000000000000000000000000000000000000000000000000000000000000000000000000000000000000000000000000000000000000000000000000000000000000000000000000000000000000000000000000000000000000000000000000000000000000000000000000000000000000000000000000000000000000000000008302008003832fefba825208845c477ac280a0bb504a5f301192aac7a877ccc568a94b7588cd38ea6d0c12ca17b736eb5454d08828ed8784a4c178b3f862f86002018304cb2f94095e7baea6a6c7c4c2dfeb977efac326af552d870a801ca015eb1cc916728b9799e55c489857727669afb2986433d5f54cde11faaed9f0eea05d36f6d06c34aae8d0a2a5895c8ba4a17ad46a5fa59f361cb3e7e01a23030e38c0",
                "transactions" : [
                    {
                        "data" : "0x",
                        "gasLimit" : "0x04cb2f",
                        "gasPrice" : "0x01",
                        "nonce" : "0x02",
                        "r" : "0x15eb1cc916728b9799e55c489857727669afb2986433d5f54cde11faaed9f0ee",
                        "s" : "0x5d36f6d06c34aae8d0a2a5895c8ba4a17ad46a5fa59f361cb3e7e01a23030e38",
                        "to" : "0x095e7baea6a6c7c4c2dfeb977efac326af552d87",
                        "v" : "0x1c",
                        "value" : "0x0a"
                    }
                ]
            },
            {
                "blockHeader" : {
                    "bloom" : "0x00000000000000000000000000000000000000000000000000000000000000000000000000000000000000000000000000000000000000000000000000000000000000000000000000000000000000000000000000000000000000000000000000000000000000000000000000000000000000000000000000000000000000000000000000000000000000000000000000000000000000000000000000000000000000000000000000000000000000000000000000000000000000000000000000000000000000000000000000000000000000000000000000000000000000000000000000000000000000000000000000000000000000000000000000000000",
                    "extraData" : "",
                    "gasLimit" : "0x2fefba",
                    "gasUsed" : "0x5208",
                    "hash" : "0xfc67552b56c249c29fd99bed2d13e6019354d918b0a320e349915bffc49bb03e",
                    "mixHash" : "0xac0d879b02934c3cd433b5c6f08b93315e0bffd0a557f4d2685cde611e298760",
                    "nonce" : "0x01b02c8bc336b077",
                    "number" : "0x01",
                    "parentHash" : "0x5a39ed1020c04d4d84539975b893a4e7c53eab6c2965db8bc3468093a31bc5ae",
                    "receiptTrie" : "0x056b23fbba480696b65fe5a59b8f2148a1299103c4f57df839233af2cf4ca2d2",
                    "stateRoot" : "0x74911c1ce56b0de8b0d482916f80fe3943ed5c9a5633f7e988216d64a43959e0",
                    "timestamp" : "0x5c477ac2",
                    "transactionsTrie" : "0x89176230d5c4ac60168e999c7a9fbea712992e712c253d635601a9d625c640fa"
                },
                "blocknumber" : "1",
                "chainname" : "B",
                "rlp" : "0xf90261f901f9a05a39ed1020c04d4d84539975b893a4e7c53eab6c2965db8bc3468093a31bc5aea01dcc4de8dec75d7aab85b567b6ccd41ad312451b948a7413f0a142fd40d49347948888f1f195afa192cfee860698584c030f4c9db1a074911c1ce56b0de8b0d482916f80fe3943ed5c9a5633f7e988216d64a43959e0a089176230d5c4ac60168e999c7a9fbea712992e712c253d635601a9d625c640faa0056b23fbba480696b65fe5a59b8f2148a1299103c4f57df839233af2cf4ca2d2b90100000000000000000000000000000000000000000000000000000000000000000000000000000000000000000000000000000000000000000000000000000000000000000000000000000000000000000000000000000000000000000000000000000000000000000000000000000000000000000000000000000000000000000000000000000000000000000000000000000000000000000000000000000000000000000000000000000000000000000000000000000000000000000000000000000000000000000000000000000000000000000000000000000000000000000000000000000000000000000000000000000000000000000000000000000000008302000001832fefba825208845c477ac280a0ac0d879b02934c3cd433b5c6f08b93315e0bffd0a557f4d2685cde611e2987608801b02c8bc336b077f862f86080018304cb2f94095e7baea6a6c7c4c2dfeb977efac326af552d8764801ca066995adf6b8ce265233fe0ef11b24f7571908674be85c347eed4359396cfa4b1a0458062325e034ea6722559f0153094069424c0d508b7b104f2635a52bfaaa532c0",
                "transactions" : [
                    {
                        "data" : "0x",
                        "gasLimit" : "0x04cb2f",
                        "gasPrice" : "0x01",
                        "nonce" : "0x00",
                        "r" : "0x66995adf6b8ce265233fe0ef11b24f7571908674be85c347eed4359396cfa4b1",
                        "s" : "0x458062325e034ea6722559f0153094069424c0d508b7b104f2635a52bfaaa532",
                        "to" : "0x095e7baea6a6c7c4c2dfeb977efac326af552d87",
                        "v" : "0x1c",
                        "value" : "0x64"
                    }
                ]
            },
            {
                "blockHeader" : {
                    "bloom" : "0x00000000000000000000000000000000000000000000000000000000000000000000000000000000000000000000000000000000000000000000000000000000000000000000000000000000000000000000000000000000000000000000000000000000000000000000000000000000000000000000000000000000000000000000000000000000000000000000000000000000000000000000000000000000000000000000000000000000000000000000000000000000000000000000000000000000000000000000000000000000000000000000000000000000000000000000000000000000000000000000000000000000000000000000000000000000",
                    "extraData" : "",
                    "gasLimit" : "0x2fefba",
                    "gasUsed" : "0x5208",
                    "hash" : "0xf9bc274d00a373bb4be4fb79b33bc3699d7768dc73099b4451c8fa54943c878a",
                    "mixHash" : "0xa6b005aa26a1c88261edb4218f6238e277c6680b8ca3b7d2e95e6b886992dc06",
                    "nonce" : "0x95dd5b29a00f8531",
                    "number" : "0x02",
                    "parentHash" : "0xfc67552b56c249c29fd99bed2d13e6019354d918b0a320e349915bffc49bb03e",
                    "receiptTrie" : "0x056b23fbba480696b65fe5a59b8f2148a1299103c4f57df839233af2cf4ca2d2",
                    "stateRoot" : "0x8daafacfff641da90c023de5c93b10ff206978c92a108e90697aaca480a0f188",
                    "timestamp" : "0x5c477ac3",
                    "transactionsTrie" : "0x1517d551f5e39788f89454305805e9e71f154ea0919d5e052b03d652ef6f657d"
                },
                "blocknumber" : "2",
                "chainname" : "B",
                "rlp" : "0xf90260f901f9a0fc67552b56c249c29fd99bed2d13e6019354d918b0a320e349915bffc49bb03ea01dcc4de8dec75d7aab85b567b6ccd41ad312451b948a7413f0a142fd40d49347948888f1f195afa192cfee860698584c030f4c9db1a08daafacfff641da90c023de5c93b10ff206978c92a108e90697aaca480a0f188a01517d551f5e39788f89454305805e9e71f154ea0919d5e052b03d652ef6f657da0056b23fbba480696b65fe5a59b8f2148a1299103c4f57df839233af2cf4ca2d2b90100000000000000000000000000000000000000000000000000000000000000000000000000000000000000000000000000000000000000000000000000000000000000000000000000000000000000000000000000000000000000000000000000000000000000000000000000000000000000000000000000000000000000000000000000000000000000000000000000000000000000000000000000000000000000000000000000000000000000000000000000000000000000000000000000000000000000000000000000000000000000000000000000000000000000000000000000000000000000000000000000000000000000000000000000000000008302004002832fefba825208845c477ac380a0a6b005aa26a1c88261edb4218f6238e277c6680b8ca3b7d2e95e6b886992dc068895dd5b29a00f8531f861f85f010182795394095e7baea6a6c7c4c2dfeb977efac326af552d8764801ba06ae7ce87f0c32417d409ba74b51cdf591f7515007c1c7ce9a4255010f46e1467a064b5f4b57fad4d9582bd666e1befd1e8943ba2f3ce7afc107f04aa4530d5a995c0",
                "transactions" : [
                    {
                        "data" : "0x",
                        "gasLimit" : "0x7953",
                        "gasPrice" : "0x01",
                        "nonce" : "0x01",
                        "r" : "0x6ae7ce87f0c32417d409ba74b51cdf591f7515007c1c7ce9a4255010f46e1467",
                        "s" : "0x64b5f4b57fad4d9582bd666e1befd1e8943ba2f3ce7afc107f04aa4530d5a995",
                        "to" : "0x095e7baea6a6c7c4c2dfeb977efac326af552d87",
                        "v" : "0x1b",
                        "value" : "0x64"
                    }
                ]
            },
            {
                "blockHeader" : {
                    "bloom" : "0x00000000000000000000000000000000000000000000000000000000000000000000000000000000000000000000000000000000000000000000000000000000000000000000000000000000000000000000000000000000000000000000000000000000000000000000000000000000000000000000000000000000000000000000000000000000000000000000000000000000000000000000000000000000000000000000000000000000000000000000000000000000000000000000000000000000000000000000000000000000000000000000000000000000000000000000000000000000000000000000000000000000000000000000000000000000",
                    "extraData" : "",
                    "gasLimit" : "0x2fefba",
                    "gasUsed" : "0xa520",
                    "hash" : "0xc5c77eec303b2277b4a0f47d24869689cbcc9367f8278478e39feacad7b9f52c",
                    "mixHash" : "0x917375622b2fb3e06e9c155ea38eb6d9ae667a9b192e41ed80ea605807560513",
                    "nonce" : "0x509aa6716d9f1412",
                    "number" : "0x03",
                    "parentHash" : "0xf9bc274d00a373bb4be4fb79b33bc3699d7768dc73099b4451c8fa54943c878a",
                    "receiptTrie" : "0x39da0d15ee87f85a60f7f4e9a13a177a8f81d3734cf3f2f2279b4bf25b12457c",
                    "stateRoot" : "0x97ebece9151c5032167dbb3aa1b6257b7020826568bb1ff5b582d7360cdf7cdd",
                    "timestamp" : "0x5c477ac4",
                    "transactionsTrie" : "0x78477aaf28ad6a7c05765196a0e352baef952d24592631e2d954955cc6f903f0"
                },
                "blocknumber" : "3",
                "chainname" : "B",
                "rlp" : "0xf902c5f901f9a0f9bc274d00a373bb4be4fb79b33bc3699d7768dc73099b4451c8fa54943c878aa01dcc4de8dec75d7aab85b567b6ccd41ad312451b948a7413f0a142fd40d49347948888f1f195afa192cfee860698584c030f4c9db1a097ebece9151c5032167dbb3aa1b6257b7020826568bb1ff5b582d7360cdf7cdda078477aaf28ad6a7c05765196a0e352baef952d24592631e2d954955cc6f903f0a039da0d15ee87f85a60f7f4e9a13a177a8f81d3734cf3f2f2279b4bf25b12457cb90100000000000000000000000000000000000000000000000000000000000000000000000000000000000000000000000000000000000000000000000000000000000000000000000000000000000000000000000000000000000000000000000000000000000000000000000000000000000000000000000000000000000000000000000000000000000000000000000000000000000000000000000000000000000000000000000000000000000000000000000000000000000000000000000000000000000000000000000000000000000000000000000000000000000000000000000000000000000000000000000000000000000000000000000000000000008302008003832fefba82a520845c477ac480a0917375622b2fb3e06e9c155ea38eb6d9ae667a9b192e41ed80ea60580756051388509aa6716d9f1412f8c6f8630201827b1594095e7baea6a6c7c4c2dfeb977efac326af552d876484345345401ba0c912adcf452d35df5a1f79eaf137953512e39a643d44c25419acb9526baf1913a04d4529643671cfa998a7fb0ed28618f822d4141cee5796e43badf52cb46f435cf85f0301827b1594095e7baea6a6c7c4c2dfeb977efac326af552d8714801ca04ae9ddaa1757ec78622ffb35ca33ade06b0e771a2fd2f9036a0fe855030246b5a053b9db67598fc4d139f3c304d6f63b23a6872b654407ed4260738f054da4b6ffc0",
                "transactions" : [
                    {
                        "data" : "0x34534540",
                        "gasLimit" : "0x7b15",
                        "gasPrice" : "0x01",
                        "nonce" : "0x02",
                        "r" : "0xc912adcf452d35df5a1f79eaf137953512e39a643d44c25419acb9526baf1913",
                        "s" : "0x4d4529643671cfa998a7fb0ed28618f822d4141cee5796e43badf52cb46f435c",
                        "to" : "0x095e7baea6a6c7c4c2dfeb977efac326af552d87",
                        "v" : "0x1b",
                        "value" : "0x64"
                    },
                    {
                        "data" : "0x",
                        "gasLimit" : "0x7b15",
                        "gasPrice" : "0x01",
                        "nonce" : "0x03",
                        "r" : "0x4ae9ddaa1757ec78622ffb35ca33ade06b0e771a2fd2f9036a0fe855030246b5",
                        "s" : "0x53b9db67598fc4d139f3c304d6f63b23a6872b654407ed4260738f054da4b6ff",
                        "to" : "0x095e7baea6a6c7c4c2dfeb977efac326af552d87",
                        "v" : "0x1c",
                        "value" : "0x14"
                    }
                ]
            },
            {
                "blockHeader" : {
                    "bloom" : "0x00000000000000000000000000000000000000000000000000000000000000000000000000000000000000000000000000000000000000000000000000000000000000000000000000000000000000000000000000000000000000000000000000000000000000000000000000000000000000000000000000000000000000000000000000000000000000000000000000000000000000000000000000000000000000000000000000000000000000000000000000000000000000000000000000000000000000000000000000000000000000000000000000000000000000000000000000000000000000000000000000000000000000000000000000000000",
                    "extraData" : "",
                    "gasLimit" : "0x2fefba",
                    "gasUsed" : "0x5208",
                    "hash" : "0x754e36e9dc5e2b4068e4041d86dcb23e8f59b35541be9efea02b7a897019d4c8",
                    "mixHash" : "0x059a26f06fd0636db34debbf80432c2a517894876041a1744a9595b4a6a41705",
                    "nonce" : "0x73950fd60d60b185",
                    "number" : "0x04",
                    "parentHash" : "0xc5c77eec303b2277b4a0f47d24869689cbcc9367f8278478e39feacad7b9f52c",
                    "receiptTrie" : "0x056b23fbba480696b65fe5a59b8f2148a1299103c4f57df839233af2cf4ca2d2",
                    "stateRoot" : "0xa003c11f71f737d315414c4d8732a1618a8c1600c232663b2cce0a28de3f3a4b",
                    "timestamp" : "0x5c477ac5",
                    "transactionsTrie" : "0x43c0b898ea93246c6f00333bf6a14de6b819c74d039d2cdf382ef1b7e895447c"
                },
                "blocknumber" : "4",
                "chainname" : "B",
                "rlp" : "0xf90260f901f9a0c5c77eec303b2277b4a0f47d24869689cbcc9367f8278478e39feacad7b9f52ca01dcc4de8dec75d7aab85b567b6ccd41ad312451b948a7413f0a142fd40d49347948888f1f195afa192cfee860698584c030f4c9db1a0a003c11f71f737d315414c4d8732a1618a8c1600c232663b2cce0a28de3f3a4ba043c0b898ea93246c6f00333bf6a14de6b819c74d039d2cdf382ef1b7e895447ca0056b23fbba480696b65fe5a59b8f2148a1299103c4f57df839233af2cf4ca2d2b9010000000000000000000000000000000000000000000000000000000000000000000000000000000000000000000000000000000000000000000000000000000000000000000000000000000000000000000000000000000000000000000000000000000000000000000000000000000000000000000000000000000000000000000000000000000000000000000000000000000000000000000000000000000000000000000000000000000000000000000000000000000000000000000000000000000000000000000000000000000000000000000000000000000000000000000000000000000000000000000000000000000000000000000000000000000000830200c004832fefba825208845c477ac580a0059a26f06fd0636db34debbf80432c2a517894876041a1744a9595b4a6a417058873950fd60d60b185f861f85f040182795394095e7baea6a6c7c4c2dfeb977efac326af552d8764801ba082a2dec18c512127304e5a7d1f5b3e513c26b43d85a095a6f448afdbe89431afa020ae86c5ade7d19c7f5110f4c3cf7b4cae94f1c774c66ac4252501e90d84c1cac0",
                "transactions" : [
                    {
                        "data" : "0x",
                        "gasLimit" : "0x7953",
                        "gasPrice" : "0x01",
                        "nonce" : "0x04",
                        "r" : "0x82a2dec18c512127304e5a7d1f5b3e513c26b43d85a095a6f448afdbe89431af",
                        "s" : "0x20ae86c5ade7d19c7f5110f4c3cf7b4cae94f1c774c66ac4252501e90d84c1ca",
                        "to" : "0x095e7baea6a6c7c4c2dfeb977efac326af552d87",
                        "v" : "0x1b",
                        "value" : "0x64"
                    }
                ]
            }
        ],
        "genesisBlockHeader" : {
            "bloom" : "0x00000000000000000000000000000000000000000000000000000000000000000000000000000000000000000000000000000000000000000000000000000000000000000000000000000000000000000000000000000000000000000000000000000000000000000000000000000000000000000000000000000000000000000000000000000000000000000000000000000000000000000000000000000000000000000000000000000000000000000000000000000000000000000000000000000000000000000000000000000000000000000000000000000000000000000000000000000000000000000000000000000000000000000000000000000000",
            "extraData" : "0x42",
            "gasLimit" : "0x2fefd8",
            "gasUsed" : "0x00",
            "hash" : "0x5a39ed1020c04d4d84539975b893a4e7c53eab6c2965db8bc3468093a31bc5ae",
            "mixHash" : "0x56e81f171bcc55a6ff8345e692c0f86e5b48e01b996cadc001622fb5e363b421",
            "nonce" : "0x0102030405060708",
            "number" : "0x00",
            "parentHash" : "0x0000000000000000000000000000000000000000000000000000000000000000",
            "receiptTrie" : "0x56e81f171bcc55a6ff8345e692c0f86e5b48e01b996cadc001622fb5e363b421",
            "stateRoot" : "0x7dba07d6b448a186e9612e5f737d1c909dce473e53199901a302c00646d523c1",
            "timestamp" : "0x54c98c81",
            "transactionsTrie" : "0x56e81f171bcc55a6ff8345e692c0f86e5b48e01b996cadc001622fb5e363b421"
        },
        "genesisRLP" : "0xf901fcf901f7a00000000000000000000000000000000000000000000000000000000000000000a01dcc4de8dec75d7aab85b567b6ccd41ad312451b948a7413f0a142fd40d49347948888f1f195afa192cfee860698584c030f4c9db1a07dba07d6b448a186e9612e5f737d1c909dce473e53199901a302c00646d523c1a056e81f171bcc55a6ff8345e692c0f86e5b48e01b996cadc001622fb5e363b421a056e81f171bcc55a6ff8345e692c0f86e5b48e01b996cadc001622fb5e363b421b90100000000000000000000000000000000000000000000000000000000000000000000000000000000000000000000000000000000000000000000000000000000000000000000000000000000000000000000000000000000000000000000000000000000000000000000000000000000000000000000000000000000000000000000000000000000000000000000000000000000000000000000000000000000000000000000000000000000000000000000000000000000000000000000000000000000000000000000000000000000000000000000000000000000000000000000000000000000000000000000000000000000000000000000000000000000008302000080832fefd8808454c98c8142a056e81f171bcc55a6ff8345e692c0f86e5b48e01b996cadc001622fb5e363b421880102030405060708c0c0",
        "lastblockhash" : "0x754e36e9dc5e2b4068e4041d86dcb23e8f59b35541be9efea02b7a897019d4c8",
        "network" : "Constantinople",
        "postState" : {
            "0x095e7baea6a6c7c4c2dfeb977efac326af552d87" : {
                "balance" : "0x01a4",
                "code" : "",
                "nonce" : "0x00",
                "storage" : {
                }
            },
            "0x8888f1f195afa192cfee860698584c030f4c9db1" : {
                "balance" : "0x6f05b59d3b219b38",
                "code" : "",
                "nonce" : "0x00",
                "storage" : {
                }
            },
            "0xa94f5374fce5edbc8e2a8697c15331677e6ebf0b" : {
                "balance" : "0x09184e710324",
                "code" : "",
                "nonce" : "0x05",
                "storage" : {
                }
            }
        },
        "pre" : {
            "0xa94f5374fce5edbc8e2a8697c15331677e6ebf0b" : {
                "balance" : "0x09184e72a000",
                "code" : "",
                "nonce" : "0x00",
                "storage" : {
                }
            }
        },
        "sealEngine" : "Ethash"
    }
}