{
    "ChainAtoChainB_Constantinople" : {
        "_info" : {
            "comment" : "",
            "filledwith" : "testeth 1.5.0.dev2-72+commit.ff0ca2db",
            "lllcversion" : "Version: 0.5.0-develop.2018.10.10+commit.06200b4b.Linux.g++",
            "source" : "src/BlockchainTestsFiller/bcMultiChainTest/ChainAtoChainBFiller.json"
        },
        "blocks" : [
            {
                "blockHeader" : {
                    "CommitteeHash": "0x1bb3f5668887d9ff77a8d3f0a0f347f517573d649fe09e4c8fb0d50789a3be9d",
                    "SnailHash": "0x0000000000000000000000000000000000000000000000000000000000000000",
                    "SnailNumber": "0x0",
                    "extraData": "0x",
                    "gasLimit": "0x5328f5e",
                    "gasUsed": "0x0",
                    "hash": "0x190c33741f18c86ac9b3b3e1102e35c95a354cb6c9214ccc1f0fa28f950840b5",
                    "bloom": "0x00000000000000000000000000000000000000000000000000000000000000000000000000000000000000000000000000000000000000000000000000000000000000000000000000000000000000000000000000000000000000000000000000000000000000000000000000000000000000000000000000000000000000000000000000000000000000000000000000000000000000000000000000000000000000000000000000000000000000000000000000000000000000000000000000000000000000000000000000000000000000000000000000000000000000000000000000000000000000000000000000000000000000000000000000000000",
                    "number": "0x01",
                    "parentHash": "0x125d960deff7a692b724ca899d419e099982a56c7220d981e4fa725b183629cc",
                    "receiptTrie": "0x56e81f171bcc55a6ff8345e692c0f86e5b48e01b996cadc001622fb5e363b421",
                    "timestamp": "0x5c87b117",
                    "stateRoot": "0x39860fb63890f78eb1d91999677135cd54adc39fcd4f1e9e850e8318cd50b7ef",
                    "transactionsTrie":"0x56e81f171bcc55a6ff8345e692c0f86e5b48e01b996cadc001622fb5e363b421"
                },
                "blocknumber" : "1",
                "chainname" : "A",
                "rlp" : "0xf90534c0f90208f86601a0190c33741f18c86ac9b3b3e1102e35c95a354cb6c9214ccc1f0fa28f950840b501b841f3e65b4a93cd3bfa8a28d28271f628bb73e0ebfa0fa4e6cb812210507b5d6ae70fc774d9b86cc1acf025cb81014804ab527fc4dac2110ac33dd9204d05d48a7b00f86601a0190c33741f18c86ac9b3b3e1102e35c95a354cb6c9214ccc1f0fa28f950840b501b8419ca0dd4f650efc02f814d5705ba30de8952c3d1230da2f55c9b9f080d6e223d626d63e157702fff26c13ab6c79950abd054902b0057e9d014acb73ecc63ecca001f86601a0190c33741f18c86ac9b3b3e1102e35c95a354cb6c9214ccc1f0fa28f950840b501b84140ac7d8a4b0a0b5289f75379a49b782b28e030e1f583b2abf08a0905e3bca8fb197dd85192b338c42d281cfa801b74052767abf40d9fd24ee7913f67c320ef1200f86601a0190c33741f18c86ac9b3b3e1102e35c95a354cb6c9214ccc1f0fa28f950840b501b841ef551815b3c83cee1efeae10d2063a6cc1419e4734b164964dc91f60cb966ba52291c804e2298361d6883208b70b90b859a10a1b159fb6739328c6e345a21b1701f86601a0190c33741f18c86ac9b3b3e1102e35c95a354cb6c9214ccc1f0fa28f950840b501b8411cfb8c1dbe294ba7cc2f196dbb0a308d15eccccee3b60c642d5ae285be088d380be4e70cac36b8de0d72eb277a87b8fbd06c9eb5a9dbb266d940951805153dbb00f90325f8719476ea2f3a002431fede1141b660dbb75c26ba6d97946fa75f74b44f65ca78f1834c1446fc868712a222b8410488a25849abee5921fdb581ba34cd66adc8e02b108391c4153ca8da27722e16badf4fcd5ba7f557ae76d444ccf3638e4590a181805623de1cab67f31364c7973681a181a1f87194831151b7eb8e650dc442cd623fbc6ae20279df8594a5c1918942c18ad6b29c15a0bd2a99c4aa0e8726b84104a9a1cedb8900d893b607c4dbc834abada3fe98f247b8bcb5ef44d3d3a246c4cf41d9d792527473c30ded81fa4b81afe7030a09e093dd92746b98c79e6a204c6381a181a1f871941074f7deccf8c66efcd0106e034d3356b7db3f2c947c6b52ea40163775ed32c194e88ec3ed35ae64a3b841040d153624462927444a8212717e4ad41ec5f5739bc36598d093d114729e1dc782d55d322699705829cf9d69f201009db797ebe8ba952f10a26fe36c64356b111b81a181a1f87194d985e9871d1be109af5a7f6407b1d6b686901fff942976f76336f66534b9cec65a6b88980961f3b2afb84104a3474c26578fce00d241119758271f6a208cc987c6f37d1518dcea2a51257bafeebd93202ae499cb5a8986720d4b63a04043aadb4d03430194a81860c9ca076381a181a1f871947c357530174275dd30e46319b89f71186256e4f794385dcd602f965a2b1440994a62f8010b4e55b0c7b84104a3e174523b1054e14f123580bce258745e65591c2a4ee44764e55eb87a3782c9920d306e6121d4f10f8726800497ad9ca5a0bfdfe0832779dbaf7b95b3bf011181a181a1f871944cf807958b9f6d9fd9331397d7a89a079ef4328894a560ecb22464f1c55dc684a1f9abfb21ddd5c339b84104d370defb1b7b8c086f98c4a7d7b90348b088cd2effdcc27b86feebdff499a192b4a5a5b16a400625271d69b3fa7d8c42c8b2e15c910cd1f314f28eb5beb7334281a181a1f8719404d2252a3e0ca7c2aa81247ca33060855a34a80894a09d938d107df3a313ba335b992204e9baf28d0cb84104f67ab0cd48f626da89c718bcd909a04dea393d632d3191891539ef2f5ff6bb1e5d340ebe94cb6d9126b26e1ec64bb4783e9e8ddf31346b53d651d15eb226142e81a181a1",
                "signs": [
                    {
                        "fastHash": "0x190c33741f18c86ac9b3b3e1102e35c95a354cb6c9214ccc1f0fa28f950840b5",
                        "fastHeight": "0x1",
                        "result": 1,
                        "sign": "0xf3e65b4a93cd3bfa8a28d28271f628bb73e0ebfa0fa4e6cb812210507b5d6ae70fc774d9b86cc1acf025cb81014804ab527fc4dac2110ac33dd9204d05d48a7b00"
                    },
                    {
                        "fastHash": "0x190c33741f18c86ac9b3b3e1102e35c95a354cb6c9214ccc1f0fa28f950840b5",
                        "fastHeight": "0x1",
                        "result": 1,
                        "sign": "0x9ca0dd4f650efc02f814d5705ba30de8952c3d1230da2f55c9b9f080d6e223d626d63e157702fff26c13ab6c79950abd054902b0057e9d014acb73ecc63ecca001"
                    },
                    {
                        "fastHash": "0x190c33741f18c86ac9b3b3e1102e35c95a354cb6c9214ccc1f0fa28f950840b5",
                        "fastHeight": "0x1",
                        "result": 1,
                        "sign": "0x40ac7d8a4b0a0b5289f75379a49b782b28e030e1f583b2abf08a0905e3bca8fb197dd85192b338c42d281cfa801b74052767abf40d9fd24ee7913f67c320ef1200"
                    },
                    {
                        "fastHash": "0x190c33741f18c86ac9b3b3e1102e35c95a354cb6c9214ccc1f0fa28f950840b5",
                        "fastHeight": "0x1",
                        "result": 1,
                        "sign": "0xef551815b3c83cee1efeae10d2063a6cc1419e4734b164964dc91f60cb966ba52291c804e2298361d6883208b70b90b859a10a1b159fb6739328c6e345a21b1701"
                    },
                    {
                        "fastHash": "0x190c33741f18c86ac9b3b3e1102e35c95a354cb6c9214ccc1f0fa28f950840b5",
                        "fastHeight": "0x1",
                        "result": 1,
                        "sign": "0x1cfb8c1dbe294ba7cc2f196dbb0a308d15eccccee3b60c642d5ae285be088d380be4e70cac36b8de0d72eb277a87b8fbd06c9eb5a9dbb266d940951805153dbb00"
                    }
                ],
                "infos": [
                    {
                        "Coinbase": "0x76ea2f3a002431fede1141b660dbb75c26ba6d97",
                        "CommitteeBase": "0x6fa75f74b44f65ca78f1834c1446fc868712a222",
                        "Flag": 161,
                        "MType": 161,
                        "Publickey": "BIiiWEmr7lkh/bWBujTNZq3I4CsQg5HEFTyo2idyLha630/NW6f1V6521ETM82OORZChgYBWI94cq2fzE2THlzY="
                    },
                    {
                        "Coinbase": "0x831151b7eb8e650dc442cd623fbc6ae20279df85",
                        "CommitteeBase": "0xa5c1918942c18ad6b29c15a0bd2a99c4aa0e8726",
                        "Flag": 161,
                        "MType": 161,
                        "Publickey": "BKmhztuJANiTtgfE28g0q62j/pjyR7i8te9E09OiRsTPQdnXklJ0c8MN7YH6S4Gv5wMKCeCT3ZJ0a5jHnmogTGM="
                    },
                    {
                        "Coinbase": "0x1074f7deccf8c66efcd0106e034d3356b7db3f2c",
                        "CommitteeBase": "0x7c6b52ea40163775ed32c194e88ec3ed35ae64a3",
                        "Flag": 161,
                        "MType": 161,
                        "Publickey": "BA0VNiRGKSdESoIScX5K1B7F9XObw2WY0JPRFHKeHceC1V0yJplwWCnPnWnyAQCdt5fr6LqVLxCib+NsZDVrERs="
                    },
                    {
                        "Coinbase": "0xd985e9871d1be109af5a7f6407b1d6b686901fff",
                        "CommitteeBase": "0x2976f76336f66534b9cec65a6b88980961f3b2af",
                        "Flag": 161,
                        "MType": 161,
                        "Publickey": "BKNHTCZXj84A0kERl1gnH2ogjMmHxvN9FRjc6ipRJXuv7r2TICrkmctaiYZyDUtjoEBDqttNA0MBlKgYYMnKB2M="
                    },
                    {
                        "Coinbase": "0x7c357530174275dd30e46319b89f71186256e4f7",
                        "CommitteeBase": "0x385dcd602f965a2b1440994a62f8010b4e55b0c7",
                        "Flag": 161,
                        "MType": 161,
                        "Publickey": "BKPhdFI7EFThTxI1gLziWHReZVkcKk7kR2TlXrh6N4LJkg0wbmEh1PEPhyaABJetnKWgv9/ggyd52697lbO/ARE="
                    },
                    {
                        "Coinbase": "0x4cf807958b9f6d9fd9331397d7a89a079ef43288",
                        "CommitteeBase": "0xa560ecb22464f1c55dc684a1f9abfb21ddd5c339",
                        "Flag": 161,
                        "MType": 161,
                        "Publickey": "BNNw3vsbe4wIb5jEp9e5A0iwiM0u/9zCe4b+69/0maGStKWlsWpABiUnHWmz+n2MQsiy4VyRDNHzFPKOtb63M0I="
                    },
                    {
                        "Coinbase": "0x04d2252a3e0ca7c2aa81247ca33060855a34a808",
                        "CommitteeBase": "0xa09d938d107df3a313ba335b992204e9baf28d0c",
                        "Flag": 161,
                        "MType": 161,
                        "Publickey": "BPZ6sM1I9ibaiccYvNkJoE3qOT1jLTGRiRU57y9f9rseXTQOvpTLbZEmsm4exku0eD6ejd8xNGtT1lHRXrImFC4="
                    }
                ],
                "transactions":[]
            }
        ],
        "genesisBlockHeader" : {
            "nonce"      :  "0x3a0",
            "timestamp"  :  "0x0",
            "parentHash" :  "0x0000000000000000000000000000000000000000000000000000000000000000",
            "extraData"  :  "",
            "gasLimit"   :  "0x5400000",
            "gasUsed" :     "0x0",
            "difficulty" :  "0x4e20",
            "mixHash"    :  "0x0000000000000000000000000000000000000000000000000000000000000000",
            "coinbase"   :  "0x0000000000000000000000000000000000000000",
            "stateRoot" :   "0x39860fb63890f78eb1d91999677135cd54adc39fcd4f1e9e850e8318cd50b7ef",
            "bloom" :       "0x00000000000000000000000000000000000000000000000000000000000000000000000000000000000000000000000000000000000000000000000000000000000000000000000000000000000000000000000000000000000000000000000000000000000000000000000000000000000000000000000000000000000000000000000000000000000000000000000000000000000000000000000000000000000000000000000000000000000000000000000000000000000000000000000000000000000000000000000000000000000000000000000000000000000000000000000000000000000000000000000000000000000000000000000000000000",
            "hash" :        "0x125d960deff7a692b724ca899d419e099982a56c7220d981e4fa725b183629cc",
            "number" :      "0x0",
            "transactionsTrie" : "0x56e81f171bcc55a6ff8345e692c0f86e5b48e01b996cadc001622fb5e363b421",
            "receiptTrie" : "0x56e81f171bcc55a6ff8345e692c0f86e5b48e01b996cadc001622fb5e363b421"

        },
        "genesisRLP" : "0x",
        "lastblockhash" : "0x125d960deff7a692b724ca899d419e099982a56c7220d981e4fa725b183629cc",
        "network" : "Constantinople",
        "postState" : {

        },
        "pre" : {
            "0x7c357530174275dd30e46319b89f71186256e4f7": {"balance" : "0x130ee8e7179044400000"},
            "0x4cf807958b9f6d9fd9331397d7a89a079ef43288": {"balance" : "0x130ee8e7179044400000"},
            "0x04d2252a3e0ca7c2aa81247ca33060855a34a808": {"balance" : "0x130ee8e7179044400000"},
            "0x05712ff78d08eaf3e0f1797aaf4421d9b24f8679": {"balance" : "0x130ee8e7179044400000"},
            "0x764727f61dd0717a48236842435e9aefab6723c3": {"balance" : "0x130ee8e7179044400000"},
            "0x764986534dba541d5061e04b9c561abe3f671178": {"balance" : "0x130ee8e7179044400000"},
            "0x0fd0bbff2e5b3ddb4f030ff35eb0fe06658646cf": {"balance" : "0x130ee8e7179044400000"},
            "0x40b3a743ba285a20eaeee770d37c093276166568": {"balance" : "0x130ee8e7179044400000"},
            "0x9d3c4a33d3bcbd2245a1bebd8e989b696e561eae": {"balance" : "0x130ee8e7179044400000"},
            "0x35c9d83c3de709bbd2cb4a8a42b89e0317abe6d4": {"balance" : "0x130ee8e7179044400000"}
        },"committee":[
            {
                "address": "0x76ea2f3a002431fede1141b660dbb75c26ba6d97",
                "publickey": "0x0488a25849abee5921fdb581ba34cd66adc8e02b108391c4153ca8da27722e16badf4fcd5ba7f557ae76d444ccf3638e4590a181805623de1cab67f31364c79736"
            },  {
                "address": "0x831151b7eb8e650dc442cd623fbc6ae20279df85",
                "publickey": "0x04a9a1cedb8900d893b607c4dbc834abada3fe98f247b8bcb5ef44d3d3a246c4cf41d9d792527473c30ded81fa4b81afe7030a09e093dd92746b98c79e6a204c63"
            },  {
                "address": "0x1074f7deccf8c66efcd0106e034d3356b7db3f2c",
                "publickey": "0x040d153624462927444a8212717e4ad41ec5f5739bc36598d093d114729e1dc782d55d322699705829cf9d69f201009db797ebe8ba952f10a26fe36c64356b111b"
            },  {
                "address": "0xd985e9871d1be109af5a7f6407b1d6b686901fff",
                "publickey": "0x04a3474c26578fce00d241119758271f6a208cc987c6f37d1518dcea2a51257bafeebd93202ae499cb5a8986720d4b63a04043aadb4d03430194a81860c9ca0763"
            },  {
                "address": "0x7c357530174275dd30e46319b89f71186256e4f7",
                "publickey": "0x04a3e174523b1054e14f123580bce258745e65591c2a4ee44764e55eb87a3782c9920d306e6121d4f10f8726800497ad9ca5a0bfdfe0832779dbaf7b95b3bf0111"
            },  {
                "address": "0x4cf807958b9f6d9fd9331397d7a89a079ef43288",
                "publickey": "0x04d370defb1b7b8c086f98c4a7d7b90348b088cd2effdcc27b86feebdff499a192b4a5a5b16a400625271d69b3fa7d8c42c8b2e15c910cd1f314f28eb5beb73342"
            }, {
                "address": "0x04d2252a3e0ca7c2aa81247ca33060855a34a808",
                "publickey": "0x04f67ab0cd48f626da89c718bcd909a04dea393d632d3191891539ef2f5ff6bb1e5d340ebe94cb6d9126b26e1ec64bb4783e9e8ddf31346b53d651d15eb226142e"
            }
        ],
        "sealEngine" : "NoProof"
    }
}